{
  "_format": "hh-sol-artifact-1",
  "contractName": "QuickRavenSwap",
  "sourceName": "contracts/QuickRavenSwap.sol",
  "abi": [
    {
      "anonymous": false,
      "inputs": [
        {
          "indexed": false,
          "internalType": "uint8",
          "name": "version",
          "type": "uint8"
        }
      ],
      "name": "Initialized",
      "type": "event"
    },
    {
      "anonymous": false,
      "inputs": [
        {
          "indexed": true,
          "internalType": "address",
          "name": "previousOwner",
          "type": "address"
        },
        {
          "indexed": true,
          "internalType": "address",
          "name": "newOwner",
          "type": "address"
        }
      ],
      "name": "OwnershipTransferred",
      "type": "event"
    },
    {
      "inputs": [
        {
          "components": [
            {
              "internalType": "address",
              "name": "dexRouter",
              "type": "address"
            },
            {
              "internalType": "address",
              "name": "tokenIn",
              "type": "address"
            },
            {
              "internalType": "address",
              "name": "tokenOut",
              "type": "address"
            },
            {
              "internalType": "uint256",
              "name": "amountIn",
              "type": "uint256"
            },
            {
              "internalType": "uint256",
              "name": "amountOutMin",
              "type": "uint256"
            }
          ],
          "internalType": "struct IQuickRavenSwap.SwapParams",
          "name": "_swapParams",
          "type": "tuple"
        }
      ],
      "name": "butterSwap",
      "outputs": [],
      "stateMutability": "nonpayable",
      "type": "function"
    },
    {
      "inputs": [],
      "name": "initialize",
      "outputs": [],
      "stateMutability": "nonpayable",
      "type": "function"
    },
    {
      "inputs": [],
      "name": "owner",
      "outputs": [
        {
          "internalType": "address",
          "name": "",
          "type": "address"
        }
      ],
      "stateMutability": "view",
      "type": "function"
    },
    {
      "inputs": [],
      "name": "renounceOwnership",
      "outputs": [],
      "stateMutability": "nonpayable",
      "type": "function"
    },
    {
      "inputs": [
        {
          "internalType": "address",
          "name": "newOwner",
          "type": "address"
        }
      ],
      "name": "transferOwnership",
      "outputs": [],
      "stateMutability": "nonpayable",
      "type": "function"
    }
  ],
  "bytecode": "0x608060405234801561001057600080fd5b50610ff5806100206000396000f3fe608060405234801561001057600080fd5b50600436106100575760003560e01c8063715018a61461005c5780638129fc1c146100665780638da5cb5b14610070578063ba73581b1461008e578063f2fde38b146100aa575b600080fd5b6100646100c6565b005b61006e6100da565b005b610078610218565b60405161008591906107d1565b60405180910390f35b6100a860048036038101906100a3919061097f565b610242565b005b6100c460048036038101906100bf91906109ac565b6104e4565b005b6100ce610567565b6100d860006105e5565b565b60008060019054906101000a900460ff1615905080801561010b5750600160008054906101000a900460ff1660ff16105b80610138575061011a306106ab565b1580156101375750600160008054906101000a900460ff1660ff16145b5b610177576040517f08c379a000000000000000000000000000000000000000000000000000000000815260040161016e90610a5c565b60405180910390fd5b60016000806101000a81548160ff021916908360ff16021790555080156101b4576001600060016101000a81548160ff0219169083151502179055505b6101bc6106ce565b80156102155760008060016101000a81548160ff0219169083151502179055507f7f26b83ff96e1f2b6a682f133852f6798a09c465da95921460cefb3847402498600160405161020c9190610ace565b60405180910390a15b50565b6000603360009054906101000a900473ffffffffffffffffffffffffffffffffffffffff16905090565b806020015173ffffffffffffffffffffffffffffffffffffffff166323b872dd333084606001516040518463ffffffff1660e01b815260040161028793929190610af8565b6020604051808303816000875af11580156102a6573d6000803e3d6000fd5b505050506040513d601f19601f820116820180604052508101906102ca9190610b67565b50806020015173ffffffffffffffffffffffffffffffffffffffff1663095ea7b3826000015183606001516040518363ffffffff1660e01b8152600401610312929190610b94565b6020604051808303816000875af1158015610331573d6000803e3d6000fd5b505050506040513d601f19601f820116820180604052508101906103559190610b67565b506000600267ffffffffffffffff81111561037357610372610816565b5b6040519080825280602002602001820160405280156103a15781602001602082028036833780820191505090505b5090508160200151816000815181106103bd576103bc610bbd565b5b602002602001019073ffffffffffffffffffffffffffffffffffffffff16908173ffffffffffffffffffffffffffffffffffffffff16815250508160400151816001815181106104105761040f610bbd565b5b602002602001019073ffffffffffffffffffffffffffffffffffffffff16908173ffffffffffffffffffffffffffffffffffffffff1681525050816000015173ffffffffffffffffffffffffffffffffffffffff166338ed1739836060015184608001518430426040518663ffffffff1660e01b8152600401610497959493929190610caa565b6000604051808303816000875af11580156104b6573d6000803e3d6000fd5b505050506040513d6000823e3d601f19601f820116820180604052508101906104df9190610de6565b505050565b6104ec610567565b600073ffffffffffffffffffffffffffffffffffffffff168173ffffffffffffffffffffffffffffffffffffffff160361055b576040517f08c379a000000000000000000000000000000000000000000000000000000000815260040161055290610ea1565b60405180910390fd5b610564816105e5565b50565b61056f610727565b73ffffffffffffffffffffffffffffffffffffffff1661058d610218565b73ffffffffffffffffffffffffffffffffffffffff16146105e3576040517f08c379a00000000000000000000000000000000000000000000000000000000081526004016105da90610f0d565b60405180910390fd5b565b6000603360009054906101000a900473ffffffffffffffffffffffffffffffffffffffff16905081603360006101000a81548173ffffffffffffffffffffffffffffffffffffffff021916908373ffffffffffffffffffffffffffffffffffffffff1602179055508173ffffffffffffffffffffffffffffffffffffffff168173ffffffffffffffffffffffffffffffffffffffff167f8be0079c531659141344cd1fd0a4f28419497f9722a3daafe3b4186f6b6457e060405160405180910390a35050565b6000808273ffffffffffffffffffffffffffffffffffffffff163b119050919050565b600060019054906101000a900460ff1661071d576040517f08c379a000000000000000000000000000000000000000000000000000000000815260040161071490610f9f565b60405180910390fd5b61072561072f565b565b600033905090565b600060019054906101000a900460ff1661077e576040517f08c379a000000000000000000000000000000000000000000000000000000000815260040161077590610f9f565b60405180910390fd5b61078e610789610727565b6105e5565b565b600073ffffffffffffffffffffffffffffffffffffffff82169050919050565b60006107bb82610790565b9050919050565b6107cb816107b0565b82525050565b60006020820190506107e660008301846107c2565b92915050565b6000604051905090565b600080fd5b600080fd5b600080fd5b6000601f19601f8301169050919050565b7f4e487b7100000000000000000000000000000000000000000000000000000000600052604160045260246000fd5b61084e82610805565b810181811067ffffffffffffffff8211171561086d5761086c610816565b5b80604052505050565b60006108806107ec565b905061088c8282610845565b919050565b61089a816107b0565b81146108a557600080fd5b50565b6000813590506108b781610891565b92915050565b6000819050919050565b6108d0816108bd565b81146108db57600080fd5b50565b6000813590506108ed816108c7565b92915050565b600060a0828403121561090957610908610800565b5b61091360a0610876565b90506000610923848285016108a8565b6000830152506020610937848285016108a8565b602083015250604061094b848285016108a8565b604083015250606061095f848285016108de565b6060830152506080610973848285016108de565b60808301525092915050565b600060a08284031215610995576109946107f6565b5b60006109a3848285016108f3565b91505092915050565b6000602082840312156109c2576109c16107f6565b5b60006109d0848285016108a8565b91505092915050565b600082825260208201905092915050565b7f496e697469616c697a61626c653a20636f6e747261637420697320616c72656160008201527f647920696e697469616c697a6564000000000000000000000000000000000000602082015250565b6000610a46602e836109d9565b9150610a51826109ea565b604082019050919050565b60006020820190508181036000830152610a7581610a39565b9050919050565b6000819050919050565b600060ff82169050919050565b6000819050919050565b6000610ab8610ab3610aae84610a7c565b610a93565b610a86565b9050919050565b610ac881610a9d565b82525050565b6000602082019050610ae36000830184610abf565b92915050565b610af2816108bd565b82525050565b6000606082019050610b0d60008301866107c2565b610b1a60208301856107c2565b610b276040830184610ae9565b949350505050565b60008115159050919050565b610b4481610b2f565b8114610b4f57600080fd5b50565b600081519050610b6181610b3b565b92915050565b600060208284031215610b7d57610b7c6107f6565b5b6000610b8b84828501610b52565b91505092915050565b6000604082019050610ba960008301856107c2565b610bb66020830184610ae9565b9392505050565b7f4e487b7100000000000000000000000000000000000000000000000000000000600052603260045260246000fd5b600081519050919050565b600082825260208201905092915050565b6000819050602082019050919050565b610c21816107b0565b82525050565b6000610c338383610c18565b60208301905092915050565b6000602082019050919050565b6000610c5782610bec565b610c618185610bf7565b9350610c6c83610c08565b8060005b83811015610c9d578151610c848882610c27565b9750610c8f83610c3f565b925050600181019050610c70565b5085935050505092915050565b600060a082019050610cbf6000830188610ae9565b610ccc6020830187610ae9565b8181036040830152610cde8186610c4c565b9050610ced60608301856107c2565b610cfa6080830184610ae9565b9695505050505050565b600080fd5b600067ffffffffffffffff821115610d2457610d23610816565b5b602082029050602081019050919050565b600080fd5b600081519050610d49816108c7565b92915050565b6000610d62610d5d84610d09565b610876565b90508083825260208201905060208402830185811115610d8557610d84610d35565b5b835b81811015610dae5780610d9a8882610d3a565b845260208401935050602081019050610d87565b5050509392505050565b600082601f830112610dcd57610dcc610d04565b5b8151610ddd848260208601610d4f565b91505092915050565b600060208284031215610dfc57610dfb6107f6565b5b600082015167ffffffffffffffff811115610e1a57610e196107fb565b5b610e2684828501610db8565b91505092915050565b7f4f776e61626c653a206e6577206f776e657220697320746865207a65726f206160008201527f6464726573730000000000000000000000000000000000000000000000000000602082015250565b6000610e8b6026836109d9565b9150610e9682610e2f565b604082019050919050565b60006020820190508181036000830152610eba81610e7e565b9050919050565b7f4f776e61626c653a2063616c6c6572206973206e6f7420746865206f776e6572600082015250565b6000610ef76020836109d9565b9150610f0282610ec1565b602082019050919050565b60006020820190508181036000830152610f2681610eea565b9050919050565b7f496e697469616c697a61626c653a20636f6e7472616374206973206e6f74206960008201527f6e697469616c697a696e67000000000000000000000000000000000000000000602082015250565b6000610f89602b836109d9565b9150610f9482610f2d565b604082019050919050565b60006020820190508181036000830152610fb881610f7c565b905091905056fea2646970667358221220044ee51fa84d818fb2a78085964825a648c5011c27e849becbff2c8263920afb64736f6c63430008150033",
  "linkReferences": {},
  "deployedLinkReferences": {}
}