{
  "_format": "hh-sol-artifact-1",
  "contractName": "Token",
  "sourceName": "contracts/Token.sol",
  "abi": [
    {
      "anonymous": false,
      "inputs": [
        {
          "indexed": true,
          "internalType": "address",
          "name": "owner",
          "type": "address"
        },
        {
          "indexed": true,
          "internalType": "address",
          "name": "spender",
          "type": "address"
        },
        {
          "indexed": false,
          "internalType": "uint256",
          "name": "value",
          "type": "uint256"
        }
      ],
      "name": "Approval",
      "type": "event"
    },
    {
      "anonymous": false,
      "inputs": [
        {
          "indexed": false,
          "internalType": "uint8",
          "name": "version",
          "type": "uint8"
        }
      ],
      "name": "Initialized",
      "type": "event"
    },
    {
      "anonymous": false,
      "inputs": [
        {
          "indexed": true,
          "internalType": "address",
          "name": "from",
          "type": "address"
        },
        {
          "indexed": true,
          "internalType": "address",
          "name": "to",
          "type": "address"
        },
        {
          "indexed": false,
          "internalType": "uint256",
          "name": "value",
          "type": "uint256"
        }
      ],
      "name": "Transfer",
      "type": "event"
    },
    {
      "inputs": [
        {
          "internalType": "address",
          "name": "owner",
          "type": "address"
        },
        {
          "internalType": "address",
          "name": "spender",
          "type": "address"
        }
      ],
      "name": "allowance",
      "outputs": [
        {
          "internalType": "uint256",
          "name": "",
          "type": "uint256"
        }
      ],
      "stateMutability": "view",
      "type": "function"
    },
    {
      "inputs": [
        {
          "internalType": "address",
          "name": "spender",
          "type": "address"
        },
        {
          "internalType": "uint256",
          "name": "amount",
          "type": "uint256"
        }
      ],
      "name": "approve",
      "outputs": [
        {
          "internalType": "bool",
          "name": "",
          "type": "bool"
        }
      ],
      "stateMutability": "nonpayable",
      "type": "function"
    },
    {
      "inputs": [
        {
          "internalType": "address",
          "name": "account",
          "type": "address"
        }
      ],
      "name": "balanceOf",
      "outputs": [
        {
          "internalType": "uint256",
          "name": "",
          "type": "uint256"
        }
      ],
      "stateMutability": "view",
      "type": "function"
    },
    {
      "inputs": [],
      "name": "decimals",
      "outputs": [
        {
          "internalType": "uint8",
          "name": "",
          "type": "uint8"
        }
      ],
      "stateMutability": "view",
      "type": "function"
    },
    {
      "inputs": [
        {
          "internalType": "address",
          "name": "spender",
          "type": "address"
        },
        {
          "internalType": "uint256",
          "name": "subtractedValue",
          "type": "uint256"
        }
      ],
      "name": "decreaseAllowance",
      "outputs": [
        {
          "internalType": "bool",
          "name": "",
          "type": "bool"
        }
      ],
      "stateMutability": "nonpayable",
      "type": "function"
    },
    {
      "inputs": [
        {
          "internalType": "address",
          "name": "spender",
          "type": "address"
        },
        {
          "internalType": "uint256",
          "name": "addedValue",
          "type": "uint256"
        }
      ],
      "name": "increaseAllowance",
      "outputs": [
        {
          "internalType": "bool",
          "name": "",
          "type": "bool"
        }
      ],
      "stateMutability": "nonpayable",
      "type": "function"
    },
    {
      "inputs": [
        {
          "internalType": "string",
          "name": "_name",
          "type": "string"
        },
        {
          "internalType": "string",
          "name": "_ticker",
          "type": "string"
        }
      ],
      "name": "initialize",
      "outputs": [],
      "stateMutability": "nonpayable",
      "type": "function"
    },
    {
      "inputs": [
        {
          "internalType": "address",
          "name": "_account",
          "type": "address"
        },
        {
          "internalType": "uint256",
          "name": "_amount",
          "type": "uint256"
        }
      ],
      "name": "mint",
      "outputs": [],
      "stateMutability": "nonpayable",
      "type": "function"
    },
    {
      "inputs": [],
      "name": "name",
      "outputs": [
        {
          "internalType": "string",
          "name": "",
          "type": "string"
        }
      ],
      "stateMutability": "view",
      "type": "function"
    },
    {
      "inputs": [],
      "name": "symbol",
      "outputs": [
        {
          "internalType": "string",
          "name": "",
          "type": "string"
        }
      ],
      "stateMutability": "view",
      "type": "function"
    },
    {
      "inputs": [],
      "name": "totalSupply",
      "outputs": [
        {
          "internalType": "uint256",
          "name": "",
          "type": "uint256"
        }
      ],
      "stateMutability": "view",
      "type": "function"
    },
    {
      "inputs": [
        {
          "internalType": "address",
          "name": "to",
          "type": "address"
        },
        {
          "internalType": "uint256",
          "name": "amount",
          "type": "uint256"
        }
      ],
      "name": "transfer",
      "outputs": [
        {
          "internalType": "bool",
          "name": "",
          "type": "bool"
        }
      ],
      "stateMutability": "nonpayable",
      "type": "function"
    },
    {
      "inputs": [
        {
          "internalType": "address",
          "name": "from",
          "type": "address"
        },
        {
          "internalType": "address",
          "name": "to",
          "type": "address"
        },
        {
          "internalType": "uint256",
          "name": "amount",
          "type": "uint256"
        }
      ],
      "name": "transferFrom",
      "outputs": [
        {
          "internalType": "bool",
          "name": "",
          "type": "bool"
        }
      ],
      "stateMutability": "nonpayable",
      "type": "function"
    },
    {
      "stateMutability": "payable",
      "type": "receive"
    }
  ],
  "bytecode": "0x608060405234801561001057600080fd5b50611d12806100206000396000f3fe6080604052600436106100c65760003560e01c806340c10f191161007f57806395d89b411161005957806395d89b41146102a3578063a457c2d7146102ce578063a9059cbb1461030b578063dd62ed3e14610348576100d7565b806340c10f19146102145780634cd88b761461023d57806370a0823114610266576100d7565b806306fdde03146100dc578063095ea7b31461010757806318160ddd1461014457806323b872dd1461016f578063313ce567146101ac57806339509351146101d7576100d7565b366100d7576100d53334610385565b005b600080fd5b3480156100e857600080fd5b506100f16104dc565b6040516100fe9190610fcf565b60405180910390f35b34801561011357600080fd5b5061012e60048036038101906101299190611099565b61056e565b60405161013b91906110f4565b60405180910390f35b34801561015057600080fd5b50610159610591565b604051610166919061111e565b60405180910390f35b34801561017b57600080fd5b5061019660048036038101906101919190611139565b61059b565b6040516101a391906110f4565b60405180910390f35b3480156101b857600080fd5b506101c16105ca565b6040516101ce91906111a8565b60405180910390f35b3480156101e357600080fd5b506101fe60048036038101906101f99190611099565b6105d3565b60405161020b91906110f4565b60405180910390f35b34801561022057600080fd5b5061023b60048036038101906102369190611099565b61060a565b005b34801561024957600080fd5b50610264600480360381019061025f91906112f8565b610618565b005b34801561027257600080fd5b5061028d60048036038101906102889190611370565b610770565b60405161029a919061111e565b60405180910390f35b3480156102af57600080fd5b506102b86107b9565b6040516102c59190610fcf565b60405180910390f35b3480156102da57600080fd5b506102f560048036038101906102f09190611099565b61084b565b60405161030291906110f4565b60405180910390f35b34801561031757600080fd5b50610332600480360381019061032d9190611099565b6108c2565b60405161033f91906110f4565b60405180910390f35b34801561035457600080fd5b5061036f600480360381019061036a919061139d565b6108e5565b60405161037c919061111e565b60405180910390f35b600073ffffffffffffffffffffffffffffffffffffffff168273ffffffffffffffffffffffffffffffffffffffff16036103f4576040517f08c379a00000000000000000000000000000000000000000000000000000000081526004016103eb90611429565b60405180910390fd5b6104006000838361096c565b80603560008282546104129190611478565b9250508190555080603360008473ffffffffffffffffffffffffffffffffffffffff1673ffffffffffffffffffffffffffffffffffffffff168152602001908152602001600020600082825401925050819055508173ffffffffffffffffffffffffffffffffffffffff16600073ffffffffffffffffffffffffffffffffffffffff167fddf252ad1be2c89b69c2b068fc378daa952ba7f163c4a11628f55a4df523b3ef836040516104c4919061111e565b60405180910390a36104d860008383610971565b5050565b6060603680546104eb906114db565b80601f0160208091040260200160405190810160405280929190818152602001828054610517906114db565b80156105645780601f1061053957610100808354040283529160200191610564565b820191906000526020600020905b81548152906001019060200180831161054757829003601f168201915b5050505050905090565b600080610579610976565b905061058681858561097e565b600191505092915050565b6000603554905090565b6000806105a6610976565b90506105b3858285610b47565b6105be858585610bd3565b60019150509392505050565b60006012905090565b6000806105de610976565b90506105ff8185856105f085896108e5565b6105fa9190611478565b61097e565b600191505092915050565b6106148282610385565b5050565b60008060019054906101000a900460ff161590508080156106495750600160008054906101000a900460ff1660ff16105b80610676575061065830610e4c565b1580156106755750600160008054906101000a900460ff1660ff16145b5b6106b5576040517f08c379a00000000000000000000000000000000000000000000000000000000081526004016106ac9061157e565b60405180910390fd5b60016000806101000a81548160ff021916908360ff16021790555080156106f2576001600060016101000a81548160ff0219169083151502179055505b6106fc8383610e6f565b610712336b033b2e3c9fd0803ce800000061060a565b801561076b5760008060016101000a81548160ff0219169083151502179055507f7f26b83ff96e1f2b6a682f133852f6798a09c465da95921460cefb3847402498600160405161076291906115e3565b60405180910390a15b505050565b6000603360008373ffffffffffffffffffffffffffffffffffffffff1673ffffffffffffffffffffffffffffffffffffffff168152602001908152602001600020549050919050565b6060603780546107c8906114db565b80601f01602080910402602001604051908101604052809291908181526020018280546107f4906114db565b80156108415780601f1061081657610100808354040283529160200191610841565b820191906000526020600020905b81548152906001019060200180831161082457829003601f168201915b5050505050905090565b600080610856610976565b9050600061086482866108e5565b9050838110156108a9576040517f08c379a00000000000000000000000000000000000000000000000000000000081526004016108a090611670565b60405180910390fd5b6108b6828686840361097e565b60019250505092915050565b6000806108cd610976565b90506108da818585610bd3565b600191505092915050565b6000603460008473ffffffffffffffffffffffffffffffffffffffff1673ffffffffffffffffffffffffffffffffffffffff16815260200190815260200160002060008373ffffffffffffffffffffffffffffffffffffffff1673ffffffffffffffffffffffffffffffffffffffff16815260200190815260200160002054905092915050565b505050565b505050565b600033905090565b600073ffffffffffffffffffffffffffffffffffffffff168373ffffffffffffffffffffffffffffffffffffffff16036109ed576040517f08c379a00000000000000000000000000000000000000000000000000000000081526004016109e490611702565b60405180910390fd5b600073ffffffffffffffffffffffffffffffffffffffff168273ffffffffffffffffffffffffffffffffffffffff1603610a5c576040517f08c379a0000000000000000000000000000000000000000000000000000000008152600401610a5390611794565b60405180910390fd5b80603460008573ffffffffffffffffffffffffffffffffffffffff1673ffffffffffffffffffffffffffffffffffffffff16815260200190815260200160002060008473ffffffffffffffffffffffffffffffffffffffff1673ffffffffffffffffffffffffffffffffffffffff168152602001908152602001600020819055508173ffffffffffffffffffffffffffffffffffffffff168373ffffffffffffffffffffffffffffffffffffffff167f8c5be1e5ebec7d5bd14f71427d1e84f3dd0314c0f7b2291e5b200ac8c7c3b92583604051610b3a919061111e565b60405180910390a3505050565b6000610b5384846108e5565b90507fffffffffffffffffffffffffffffffffffffffffffffffffffffffffffffffff8114610bcd5781811015610bbf576040517f08c379a0000000000000000000000000000000000000000000000000000000008152600401610bb690611800565b60405180910390fd5b610bcc848484840361097e565b5b50505050565b600073ffffffffffffffffffffffffffffffffffffffff168373ffffffffffffffffffffffffffffffffffffffff1603610c42576040517f08c379a0000000000000000000000000000000000000000000000000000000008152600401610c3990611892565b60405180910390fd5b600073ffffffffffffffffffffffffffffffffffffffff168273ffffffffffffffffffffffffffffffffffffffff1603610cb1576040517f08c379a0000000000000000000000000000000000000000000000000000000008152600401610ca890611924565b60405180910390fd5b610cbc83838361096c565b6000603360008573ffffffffffffffffffffffffffffffffffffffff1673ffffffffffffffffffffffffffffffffffffffff16815260200190815260200160002054905081811015610d43576040517f08c379a0000000000000000000000000000000000000000000000000000000008152600401610d3a906119b6565b60405180910390fd5b818103603360008673ffffffffffffffffffffffffffffffffffffffff1673ffffffffffffffffffffffffffffffffffffffff1681526020019081526020016000208190555081603360008573ffffffffffffffffffffffffffffffffffffffff1673ffffffffffffffffffffffffffffffffffffffff168152602001908152602001600020600082825401925050819055508273ffffffffffffffffffffffffffffffffffffffff168473ffffffffffffffffffffffffffffffffffffffff167fddf252ad1be2c89b69c2b068fc378daa952ba7f163c4a11628f55a4df523b3ef84604051610e33919061111e565b60405180910390a3610e46848484610971565b50505050565b6000808273ffffffffffffffffffffffffffffffffffffffff163b119050919050565b600060019054906101000a900460ff16610ebe576040517f08c379a0000000000000000000000000000000000000000000000000000000008152600401610eb590611a48565b60405180910390fd5b610ec88282610ecc565b5050565b600060019054906101000a900460ff16610f1b576040517f08c379a0000000000000000000000000000000000000000000000000000000008152600401610f1290611a48565b60405180910390fd5b8160369081610f2a9190611c0a565b508060379081610f3a9190611c0a565b505050565b600081519050919050565b600082825260208201905092915050565b60005b83811015610f79578082015181840152602081019050610f5e565b60008484015250505050565b6000601f19601f8301169050919050565b6000610fa182610f3f565b610fab8185610f4a565b9350610fbb818560208601610f5b565b610fc481610f85565b840191505092915050565b60006020820190508181036000830152610fe98184610f96565b905092915050565b6000604051905090565b600080fd5b600080fd5b600073ffffffffffffffffffffffffffffffffffffffff82169050919050565b600061103082611005565b9050919050565b61104081611025565b811461104b57600080fd5b50565b60008135905061105d81611037565b92915050565b6000819050919050565b61107681611063565b811461108157600080fd5b50565b6000813590506110938161106d565b92915050565b600080604083850312156110b0576110af610ffb565b5b60006110be8582860161104e565b92505060206110cf85828601611084565b9150509250929050565b60008115159050919050565b6110ee816110d9565b82525050565b600060208201905061110960008301846110e5565b92915050565b61111881611063565b82525050565b6000602082019050611133600083018461110f565b92915050565b60008060006060848603121561115257611151610ffb565b5b60006111608682870161104e565b93505060206111718682870161104e565b925050604061118286828701611084565b9150509250925092565b600060ff82169050919050565b6111a28161118c565b82525050565b60006020820190506111bd6000830184611199565b92915050565b600080fd5b600080fd5b7f4e487b7100000000000000000000000000000000000000000000000000000000600052604160045260246000fd5b61120582610f85565b810181811067ffffffffffffffff82111715611224576112236111cd565b5b80604052505050565b6000611237610ff1565b905061124382826111fc565b919050565b600067ffffffffffffffff821115611263576112626111cd565b5b61126c82610f85565b9050602081019050919050565b82818337600083830152505050565b600061129b61129684611248565b61122d565b9050828152602081018484840111156112b7576112b66111c8565b5b6112c2848285611279565b509392505050565b600082601f8301126112df576112de6111c3565b5b81356112ef848260208601611288565b91505092915050565b6000806040838503121561130f5761130e610ffb565b5b600083013567ffffffffffffffff81111561132d5761132c611000565b5b611339858286016112ca565b925050602083013567ffffffffffffffff81111561135a57611359611000565b5b611366858286016112ca565b9150509250929050565b60006020828403121561138657611385610ffb565b5b60006113948482850161104e565b91505092915050565b600080604083850312156113b4576113b3610ffb565b5b60006113c28582860161104e565b92505060206113d38582860161104e565b9150509250929050565b7f45524332303a206d696e7420746f20746865207a65726f206164647265737300600082015250565b6000611413601f83610f4a565b915061141e826113dd565b602082019050919050565b6000602082019050818103600083015261144281611406565b9050919050565b7f4e487b7100000000000000000000000000000000000000000000000000000000600052601160045260246000fd5b600061148382611063565b915061148e83611063565b92508282019050808211156114a6576114a5611449565b5b92915050565b7f4e487b7100000000000000000000000000000000000000000000000000000000600052602260045260246000fd5b600060028204905060018216806114f357607f821691505b602082108103611506576115056114ac565b5b50919050565b7f496e697469616c697a61626c653a20636f6e747261637420697320616c72656160008201527f647920696e697469616c697a6564000000000000000000000000000000000000602082015250565b6000611568602e83610f4a565b91506115738261150c565b604082019050919050565b600060208201905081810360008301526115978161155b565b9050919050565b6000819050919050565b6000819050919050565b60006115cd6115c86115c38461159e565b6115a8565b61118c565b9050919050565b6115dd816115b2565b82525050565b60006020820190506115f860008301846115d4565b92915050565b7f45524332303a2064656372656173656420616c6c6f77616e63652062656c6f7760008201527f207a65726f000000000000000000000000000000000000000000000000000000602082015250565b600061165a602583610f4a565b9150611665826115fe565b604082019050919050565b600060208201905081810360008301526116898161164d565b9050919050565b7f45524332303a20617070726f76652066726f6d20746865207a65726f2061646460008201527f7265737300000000000000000000000000000000000000000000000000000000602082015250565b60006116ec602483610f4a565b91506116f782611690565b604082019050919050565b6000602082019050818103600083015261171b816116df565b9050919050565b7f45524332303a20617070726f766520746f20746865207a65726f20616464726560008201527f7373000000000000000000000000000000000000000000000000000000000000602082015250565b600061177e602283610f4a565b915061178982611722565b604082019050919050565b600060208201905081810360008301526117ad81611771565b9050919050565b7f45524332303a20696e73756666696369656e7420616c6c6f77616e6365000000600082015250565b60006117ea601d83610f4a565b91506117f5826117b4565b602082019050919050565b60006020820190508181036000830152611819816117dd565b9050919050565b7f45524332303a207472616e736665722066726f6d20746865207a65726f20616460008201527f6472657373000000000000000000000000000000000000000000000000000000602082015250565b600061187c602583610f4a565b915061188782611820565b604082019050919050565b600060208201905081810360008301526118ab8161186f565b9050919050565b7f45524332303a207472616e7366657220746f20746865207a65726f206164647260008201527f6573730000000000000000000000000000000000000000000000000000000000602082015250565b600061190e602383610f4a565b9150611919826118b2565b604082019050919050565b6000602082019050818103600083015261193d81611901565b9050919050565b7f45524332303a207472616e7366657220616d6f756e742065786365656473206260008201527f616c616e63650000000000000000000000000000000000000000000000000000602082015250565b60006119a0602683610f4a565b91506119ab82611944565b604082019050919050565b600060208201905081810360008301526119cf81611993565b9050919050565b7f496e697469616c697a61626c653a20636f6e7472616374206973206e6f74206960008201527f6e697469616c697a696e67000000000000000000000000000000000000000000602082015250565b6000611a32602b83610f4a565b9150611a3d826119d6565b604082019050919050565b60006020820190508181036000830152611a6181611a25565b9050919050565b60008190508160005260206000209050919050565b60006020601f8301049050919050565b600082821b905092915050565b600060088302611aca7fffffffffffffffffffffffffffffffffffffffffffffffffffffffffffffffff82611a8d565b611ad48683611a8d565b95508019841693508086168417925050509392505050565b6000611b07611b02611afd84611063565b6115a8565b611063565b9050919050565b6000819050919050565b611b2183611aec565b611b35611b2d82611b0e565b848454611a9a565b825550505050565b600090565b611b4a611b3d565b611b55818484611b18565b505050565b5b81811015611b7957611b6e600082611b42565b600181019050611b5b565b5050565b601f821115611bbe57611b8f81611a68565b611b9884611a7d565b81016020851015611ba7578190505b611bbb611bb385611a7d565b830182611b5a565b50505b505050565b600082821c905092915050565b6000611be160001984600802611bc3565b1980831691505092915050565b6000611bfa8383611bd0565b9150826002028217905092915050565b611c1382610f3f565b67ffffffffffffffff811115611c2c57611c2b6111cd565b5b611c3682546114db565b611c41828285611b7d565b600060209050601f831160018114611c745760008415611c62578287015190505b611c6c8582611bee565b865550611cd4565b601f198416611c8286611a68565b60005b82811015611caa57848901518255600182019150602085019450602081019050611c85565b86831015611cc75784890151611cc3601f891682611bd0565b8355505b6001600288020188555050505b50505050505056fea2646970667358221220b088af1291c7375f18b2d505ca777f7e7b9ef1228eeb80e99b985ca6c4ff33e964736f6c63430008150033",
  "linkReferences": {},
  "deployedLinkReferences": {}
}